:020000040000FA
:100000000C9462000C948A000C948A000C948A0070
:100010000C948A000C948A000C948A000C948A0038
:100020000C948A000C948A000C948A000C948A0028
:100030000C948A000C948A000C948A000C948A0018
:100040000C944A020C948A000C9418020C94F2014D
:100050000C948A000C948A000C948A000C948A00F8
:100060000C948A000C948A00000000080002010031
:100070000003040700000000000000000000000072
:10008000250028002B0000000000240027002A0083
:1000900000000000230026002900040404040404D6
:1000A0000404020202020202030303030303010227
:1000B00004081020408001020408102001020408F6
:1000C0001020470411241FBECFEFD8E0DEBFCDBF04
:1000D00011E0A0E0B1E0EEE9FBE002C005900D9276
:1000E000A632B107D9F721E0A6E2B1E001C01D9226
:1000F000AE3CB207E1F710E0C2E6D0E004C02197C1
:10010000FE010E94C705C136D107C9F70E94D90276
:100110000C94CD050C940000AF92BF92CF92DF9269
:10012000EF92FF920F931F93CF93DF936C017B01AC
:100130008B01040F151FEB015E01AE18BF08C0173D
:10014000D10759F06991D601ED91FC910190F081B0
:10015000E02DC6010995892B79F7C501DF91CF9173
:100160001F910F91FF90EF90DF90CF90BF90AF90D5
:100170000895FC01538D448D252F30E0842F90E0AD
:10018000821B930B541710F0CF9608950197089592
:10019000FC01918D828D981761F0A28DAE0FBF2F5B
:1001A000B11D5D968C91928D9F5F9F73928F90E0B1
:1001B00008958FEF9FEF0895FC01918D828D981720
:1001C00031F0828DE80FF11D858D90E008958FEF5D
:1001D0009FEF0895FC01918D228D892F90E0805C26
:1001E0009F4F821B91098F739927089581E391E0B6
:1001F0000E94EA0021E0892B09F420E0822F089573
:1002000080E090E0892B29F00E94F60081110C9487
:1002100000000895FC01A48DA80FB92FB11DA35AA9
:10022000BF4F2C91848D90E001968F739927848F16
:10023000A689B7892C93A089B1898C918370806439
:100240008C93938D848D981306C00288F389E02DDA
:1002500080818F7D80830895EF92FF920F931F938B
:10026000CF93DF93EC0181E0888F9B8D8C8D981369
:100270001AC0E889F989808185FF15C09FB7F89475
:10028000EE89FF896083E889F989808183708064C1
:1002900080839FBF81E090E0DF91CF911F910F910C
:1002A000FF90EF900895F62E0B8D10E00F5F1F4F1B
:1002B0000F731127E02E8C8D8E110CC00FB607FC2A
:1002C000FACFE889F989808185FFF5CFCE010E94B8
:1002D0000A01F1CFEB8DEC0FFD2FF11DE35AFF4F1B
:1002E000F0829FB7F8940B8FEA89FB898081806246
:1002F000CFCFCF93DF93EC01888D8823B9F0AA8903
:10030000BB89E889F9898C9185FD03C0808186FDD0
:100310000DC00FB607FCF7CF8C9185FFF2CF80811F
:1003200085FFEDCFCE010E940A01E9CFDF91CF9189
:10033000089590E0FC01E859FF4F2491FC01E2553B
:10034000FF4F3491FC01E656FF4FE491EE23C9F0D4
:10035000222339F0233001F1A8F4213019F12230A1
:1003600029F1F0E0EE0FFF1FE458FF4FA591B49183
:100370008FB7F894EC91611126C030953E233C93E1
:100380008FBF08952730A9F02830C9F0243049F7ED
:10039000809180008F7D03C0809180008F77809353
:1003A0008000DFCF84B58F7784BDDBCF84B58F7DB0
:1003B000FBCF8091B0008F778093B000D2CF809137
:1003C000B0008F7DF9CF3E2BDACFFC0101900020E9
:1003D000E9F73197AF01481B590BBC0181E391E06C
:1003E0000C948C001F920F920FB60F9211242F9332
:1003F0003F934F935F936F937F938F939F93AF93AD
:10040000BF93EF93FF9381E391E00E940A01FF9174
:10041000EF91BF91AF919F918F917F916F915F917C
:100420004F913F912F910F900FBE0F901F901895F5
:100430001F920F920FB60F9211242F938F939F93B9
:10044000EF93FF93E0914101F09142018081E091AF
:100450004701F091480182FD1BC0908180914A01C3
:100460008F5F8F7320914B01821741F0E0914A0119
:10047000F0E0EF5CFE4F958F80934A01FF91EF9182
:100480009F918F912F910F900FBE0F901F901895F5
:100490008081F4CF1F920F920FB60F9211242F93E9
:1004A0003F938F939F93AF93BF9380912B01909134
:1004B0002C01A0912D01B0912E0130912A0123E051
:1004C000230F2D3758F50196A11DB11D20932A0148
:1004D00080932B0190932C01A0932D01B0932E01BA
:1004E0008091260190912701A0912801B0912901C6
:1004F0000196A11DB11D8093260190932701A09321
:100500002801B0932901BF91AF919F918F913F91A5
:100510002F910F900FBE0F901F90189526E8230F74
:100520000296A11DB11DD2CFCF92DF92EF92FF9222
:100530000F931F93E82FF92F05C0015011092109CE
:10054000310961F1908196239417B9F305C00150E8
:1005500011092109310911F1908196239413F7CFE4
:10056000C12CD12CE12CF12C0AC08FEFC81AD80A6B
:10057000E80AF80A0C151D052E053F0579F0808163
:100580008623841791F36C2D7D2D8E2D9F2D1F9129
:100590000F91FF90EF90DF90CF90089560E070E0B2
:1005A00080E090E01F910F91FF90EF90DF90CF904F
:1005B0000895CF93DF93CDB7DEB7A1970FB6F89428
:1005C000DEBF0FBECDBF789484B5826084BD84B594
:1005D000816084BD85B5826085BD85B5816085BD3E
:1005E00080916E00816080936E00109281008091F6
:1005F000810082608093810080918100816080937E
:100600008100809180008160809380008091B100A2
:1006100084608093B1008091B00081608093B000CD
:1006200080917A00846080937A0080917A00826061
:1006300080937A0080917A00816080937A00809123
:100640007A00806880937A001092C100E8EBF0E0B5
:100650002491E4EAF0E08491882399F090E0880FF7
:10066000991FFC01EA57FF4FA591B491FC01E45892
:10067000FF4F859194918FB7F894EC91E22BEC9316
:100680008FBF77EB272E70E0372EF1012491E3EA3C
:10069000CE2EE0E0DE2EF60184918823C9F090E0B2
:1006A000880F991FFC01EA57FF4FA591B491FC01F7
:1006B000E458FF4F459154913FB7F8949C91822F95
:1006C000809598239C93FA019081892380833FBF72
:1006D000E0914101F091420182E08083E0913D018F
:1006E000F0913E011082E0913F01F09140018FECCA
:1006F000808310924901E0914501F091460186E026
:100700008083E0914301F091440180818061808386
:10071000E0914301F0914401808188608083E09101
:100720004301F0914401808180688083E09143011E
:10073000F091440180818F7D808343E2E42EF12C8F
:100740005AE0852E912CA12CB12C60E08AE00E9409
:100750009901C7010197F1F761E08AE00E949901D0
:10076000C7010197F1F760E08AE00E949901C70193
:100770000197F1F7F1016491F6018491E82FF0E01F
:10078000EE0FFF1FE057FF4F8591949100E412E4B4
:100790002FE030E0462F0E9494026115710581051B
:1007A000910529F06F5F7F4F8F4F9F4F9F709595F9
:1007B0008795779567950E94AC0426E933E44BE072
:1007C0005DE30E9410050E947404709330016093F1
:1007D0002F0182E191E00E94E50140902F015090AD
:1007E0003001052C000C6608770877FE3AC06DE2F0
:1007F00081E391E00E942C0122273327A9012419CB
:1008000035094609570919A2CE0181963C01CA0152
:10081000B901A50194010E94A505605DF3016293F1
:100820003F01211531054105510589F76114710416
:1008300019F0C3010E94E5018FE191E00E94E501FA
:1008400083E291E00E94E50180E090E0892B09F4C9
:100850007CCF0E94F600882309F477CF0E94000025
:1008600074CFA301920119A2CE0181963C01CA0165
:10087000B901A50194010E94A505605DF301629391
:100880003F01211531054105510589F7CFCFE1E33E
:10089000F1E01382128288EE93E0A0E0B0E084835E
:1008A0009583A683B78384E091E09183808385EC70
:1008B00090E09587848784EC90E09787868780EC2A
:1008C00090E0918B808B81EC90E0938B828B82EC1B
:1008D00090E0958B848B86EC90E0978B868B118EC5
:1008E000128E138E148E08950E947B046894B111A9
:1008F0000C940A0508950E94EF0488F09F5798F021
:10090000B92F9927B751B0F0E1F0660F771F881F14
:10091000991F1AF0BA95C9F714C0B13091F00E942E
:100920000905B1E008950C940905672F782F8827F1
:10093000B85F39F0B93FCCF3869577956795B39555
:10094000D9F73EF490958095709561957F4F8F4FC4
:100950009F4F0895E89409C097FB3EF490958095C9
:10096000709561957F4F8F4F9F4F9923A9F0F92F75
:1009700096E9BB279395F695879577956795B795F3
:10098000F111F8CFFAF4BB0F11F460FF1BC06F5FD9
:100990007F4F8F4F9F4F16C0882311F096E911C0EB
:1009A000772321F09EE8872F762F05C0662371F00C
:1009B00096E8862F70E060E02AF09A95660F771F20
:1009C000881FDAF7880F9695879597F9089557FD50
:1009D0009058440F551F59F05F3F71F04795880FAD
:1009E00097FB991F61F09F3F79F087950895121644
:1009F00013061406551FF2CF4695F1DF08C01616F0
:100A000017061806991FF1CF8695710561050894A0
:100A10000895E894BB2766277727CB0197F90895B7
:100A20000E9423050C9494050E94860538F00E94CC
:100A30008D0520F0952311F00C947D050C94830511
:100A400011240C940A050E94E70470F3959FC1F3EA
:100A5000950F50E0551F629FF001729FBB27F00D6C
:100A6000B11D639FAA27F00DB11DAA1F649F6627C1
:100A7000B00DA11D661F829F2227B00DA11D621F10
:100A8000739FB00DA11D621F839FA00D611D221FCA
:100A9000749F3327A00D611D231F849F600D211DAE
:100AA000822F762F6A2F11249F5750409AF0F1F031
:100AB00088234AF0EE0FFF1FBB1F661F771F881F9A
:100AC00091505040A9F79E3F510580F00C947D0550
:100AD0000C940A055F3FE4F3983ED4F3869577952E
:100AE0006795B795F795E7959F5FC1F7FE2B880F40
:100AF000911D9695879597F9089597F99F6780E8D6
:100B000070E060E008959FEF80EC089500240A945F
:100B10001616170618060906089500240A941216D8
:100B20001306140605060895092E0394000C11F40B
:100B3000882352F0BB0F40F4BF2B11F460FF04C0B8
:100B40006F5F7F4F8F4F9F4F0895A1E21A2EAA1B10
:100B5000BB1BFD010DC0AA1FBB1FEE1FFF1FA2176D
:100B6000B307E407F50720F0A21BB30BE40BF50B6A
:100B7000661F771F881F991F1A9469F760957095F3
:100B8000809590959B01AC01BD01CF010895EE0FBA
:100B9000FF1F0590F491E02D0994F894FFCF000019
:100BA00000002C018C00B9007901EA00C800DC00CB
:100BB0002044697374616E6365203D200020636D7D
:040BC000000D0A001A
:107E0000112484B714BE81FFF0D085E080938100F7
:107E100082E08093C00088E18093C10086E0809377
:107E2000C20080E18093C4008EE0C9D0259A86E02C
:107E300020E33CEF91E0309385002093840096BBD3
:107E4000B09BFECF1D9AA8958150A9F7CC24DD24C4
:107E500088248394B5E0AB2EA1E19A2EF3E0BF2EE7
:107E6000A2D0813461F49FD0082FAFD0023811F036
:107E7000013811F484E001C083E08DD089C08234E0
:107E800011F484E103C0853419F485E0A6D080C0E4
:107E9000853579F488D0E82EFF2485D0082F10E0AE
:107EA000102F00270E291F29000F111F8ED06801E7
:107EB0006FC0863521F484E090D080E0DECF843638
:107EC00009F040C070D06FD0082F6DD080E0C81688
:107ED00080E7D80618F4F601B7BEE895C0E0D1E017
:107EE00062D089930C17E1F7F0E0CF16F0E7DF06D8
:107EF00018F0F601B7BEE89568D007B600FCFDCFD4
:107F0000A601A0E0B1E02C9130E011968C91119780
:107F100090E0982F8827822B932B1296FA010C0160
:107F200087BEE89511244E5F5F4FF1E0A038BF0790
:107F300051F7F601A7BEE89507B600FCFDCF97BE46
:107F4000E89526C08437B1F42ED02DD0F82E2BD052
:107F50003CD0F601EF2C8F010F5F1F4F84911BD097
:107F6000EA94F801C1F70894C11CD11CFA94CF0C13
:107F7000D11C0EC0853739F428D08EE10CD085E9AC
:107F80000AD08FE07ACF813511F488E018D01DD067
:107F900080E101D065CF982F8091C00085FFFCCF94
:107FA0009093C60008958091C00087FFFCCF809118
:107FB000C00084FD01C0A8958091C6000895E0E648
:107FC000F0E098E1908380830895EDDF803219F02E
:107FD00088E0F5DFFFCF84E1DECF1F93182FE3DFCA
:107FE0001150E9F7F2DF1F91089580E0E8DFEE27F6
:047FF000FF270994CA
:027FFE00040479
:00000001FF
